:020000040000FA
:02000000742862
:040002000034003492
:08000800A400030EA5008B18F3
:1000100010200B181520250E8300A40E240E0900B5
:10002000831203138B103620080083120313061A61
:100030003620861A2120061B4720831203130B103B
:1000400008000030200703194C28A003A303FF3049
:100050002302031D08000930A300A203FF3022027F
:10006000031D08000930A200A1030800A00A03191B
:100070004728A30A0A302302031D0800A301A20A8D
:100080000A302202031D0800A201A10A0800A001F3
:10009000A101A201A3010800FF30A0000230A100CD
:1000A0000530A2000530A300080083120313861058
:1000B0000611861500302304831203138700831270
:1000C00003138610061586110030220483120313D1
:1000D0008700831203138614061186110030210451
:1000E0008312031387000800831203138B170B1668
:1000F0008B15A001A101A201A301831603130030F7
:100100008700831203138610061186115520862856
:02400E00723FFF
:00000001FF
