:020000040000FA
:02000000502886
:040002000034003492
:080008008B1809200B181020D1
:100010000900831203138B1031208312031308008D
:1000200083120313061A3120861A1C20061B422055
:10003000831203130B100800003020070319472810
:10004000A003A303FF302302031D08000930A3000F
:10005000A203FF302202031D08000930A200A10301
:100060000800A00A03194228A30A0A302302031D2C
:100070000800A301A20A0A302202031D0800A201FF
:10008000A10A0800A001A101A201A3010800FF30FC
:10009000A0000230A1000530A2000530A300080036
:1000A000831203138B170B168B15A001A101A2015C
:0400B000A301592827
:02400E00723FFF
:00000001FF
