:020000040000FA
:020000003E2898
:040002000034003492
:08000800A400030EA5008B18F3
:1000100010200B181320250E8300A40E240E0900B7
:1000200028208B1008000B100800A003031D39289E
:10003000A303FF302302031D080009302302A2039B
:10004000FF302202031D080009302202A10308002C
:10005000A00A031D3928A30A0A302302031D080041
:10006000A301A20A0A302202031D0800A201A10A6C
:100070000800A001A101A201A3010800831203133B
:100080008B170B168B15A001A101A201A301472814
:02400E00723FFF
:00000001FF
